:020000040000FA
:100000000C9462000C948A000C948A000C948A0070
:100010000C948A000C948A000C948A000C948A0038
:100020000C948A000C948A000C948A000C9494011D
:100030000C948A000C948A000C948A000C948A0018
:100040000C944A010C948A000C948A000C948A0047
:100050000C948A000C948A000C948A000C948A00F8
:100060000C948A000C948A000000000024002700F1
:100070002A0000000000250028002B0000000000DE
:1000800023002600290004040404040404040202DA
:100090000202020203030303030301020408102007
:1000A0004080010204081020010204081020000012
:1000B0000008000201000003040700000000000027
:1000C00000006C0311241FBECFEFD8E0DEBFCDBF10
:1000D00011E0A0E0B1E0ECEEF7E002C005900D9277
:1000E000A030B107D9F721E0A0E0B1E001C01D9236
:1000F000A233B207E1F710E0C2E6D0E004C02197D6
:10010000FE010E94EE03C136D107C9F70E945002DA
:100110000C94F4030C940000E0910B01EC3088F592
:1001200040910C0128E830E0241B310947FD33954C
:10013000220F331F220F331F8217930784F0409141
:100140000D0128E532E0241B310947FD3395220FCC
:10015000331F220F331F821793070CF49C01225088
:100160003109220F331F4FB7F8948E2F90E0FC0116
:10017000EE0FFF1FE80FF91FE25FFE4F328321836E
:100180004FBF0895833081F028F4813099F0823098
:10019000A9F008958730A9F08830C9F08430B1F40F
:1001A000809180008F7D03C0809180008F77809345
:1001B0008000089584B58F7784BD089584B58F7DC0
:1001C000FBCF8091B0008F778093B000089580912D
:1001D000B0008F7DF9CF1F93CF93DF93282F30E0AE
:1001E000F901E255FF4F8491F901E656FF4FD49192
:1001F000F901EA57FF4FC491CC23A9F0162F8111C2
:100200000E94C200EC2FF0E0EE0FFF1FEE58FF4FF0
:10021000A591B4918FB7F894EC91111108C0D095C5
:10022000DE23DC938FBFDF91CF911F910895DE2BEA
:10023000F8CFCF93DF9390E0FC01E656FF4F249177
:100240008A579F4FFC0184918823D1F090E0880F5A
:10025000991FFC01E859FF4FA591B491FC01EE589C
:10026000FF4FC591D49161110EC09FB7F8948C9146
:10027000E22FE0958E238C932881E223E8839FBFB1
:10028000DF91CF9108958FB7F894EC91E22BEC9326
:100290008FBFF6CF1F920F920FB60F9211242F939C
:1002A0003F938F939F93AF93BF938091070190915A
:1002B0000801A0910901B0910A013091060123E0E3
:1002C000230F2D3758F50196A11DB11D209306016E
:1002D0008093070190930801A0930901B0930A014C
:1002E0008091020190910301A0910401B091050158
:1002F0000196A11DB11D8093020190930301A0936B
:100300000401B0930501BF91AF919F918F913F91EF
:100310002F910F900FBE0F901F90189526E8230F76
:100320000296A11DB11DD2CF1F920F920FB60F9250
:1003300011242F933F934F935F936F937F938F93EA
:100340009F93AF93BF93CF93DF93EF93FF938091EE
:100350000101C0910001D0E087FF24C01092850008
:1003600010928400809101018F5F80930101809140
:100370000101082E000C990B8C179D0724F4809125
:1003800001018C30C4F18091840090918500049625
:1003900080349C4908F47AC0809184009091850053
:1003A000049676C080910101082E000C990B8C17E1
:1003B0009D07C4F6E09101018E2FEE0F990BFC0111
:1003C000EE0FFF1FE80FF91FE25FFE4F808186FFEF
:1003D000C9CFE09101018E2FEE0F990BFC01EE0FBA
:1003E000FF1FE80FF91FE25FFE4F808160E08F730F
:1003F0000E94EB00B7CF2091840030918500E091FE
:1004000001018E2FEE0F990BFC01EE0FFF1FE80F7D
:10041000F91FE25FFE4F81819281820F931F9093BB
:10042000890080938800E09101018E2FEE0F990BD7
:10043000FC01EE0FFF1FE80FF91FE25FFE4F808106
:1004400086FF11C0E09101018E2FEE0F990BFC0188
:10045000EE0FFF1FE80FF91FE25FFE4F808161E0A2
:100460008F730E94EB00FF91EF91DF91CF91BF91CD
:10047000AF919F918F917F916F915F914F913F913C
:100480002F910F900FBE0F901F90189580E49CE95C
:1004900090938900809388008FEF80930101E3CFD0
:1004A000789484B5826084BD84B5816084BD85B54F
:1004B000826085BD85B5816085BD80916E0081605B
:1004C00080936E0010928100809181008260809301
:1004D0008100809181008160809381008091800003
:1004E0008160809380008091B10084608093B1002E
:1004F0008091B00081608093B00080917A00846028
:1005000080937A0080917A00826080937A00809153
:100510007A00816080937A0080917A00806880936D
:100520007A001092C10060E082E00E94190161E04F
:100530008AE00E94190180910B018C3008F051C0B3
:1005400061E089E00E94190180910B01282F30E0C1
:10055000F901EE0FFF1FE20FF31FE25FFE4F9081E4
:10056000907C9960908310920C0110920D012CE008
:10057000622F0E94E203829FB001112430E020E04C
:10058000AB01420F531FFA01EE0FFF1FE40FF51FDF
:10059000E25FFE4F908196FD16C02F5F3F4F2C30DB
:1005A000310571F781110FC01092800082E08093B5
:1005B00081001092850010928400B19A80916F00A2
:1005C000826080936F00E0910B018E2F90E0FC0120
:1005D000EE0FFF1FE80FF91FE25FFE4F808180647E
:1005E00080836CE9262E60E0362E08E810E0C8E82B
:1005F000D0E078E5C72E72E0D72EE4EB8E2E912C5A
:10060000A12CB12CF0E0EF2EF0E0FF2EE0EBF0E0BB
:100610008491F1017490F8016490662009F44CC053
:1006200081110E94C200E62DF0E0EE0FFF1FE4589A
:10063000FF4FA591B4918C91782209F43DC080912F
:100640000C012E01481A510887FD5394440C551C87
:10065000440C551C052C000C6608770880910D0190
:100660009601281B310987FD3395220F331F220F76
:10067000331F032E000C440B550B24193509460972
:100680005709AAE5B0E00E94A603A50194010E94C3
:100690008703DA01C901840D951DA61DB71D0E94AF
:1006A0008C0061E08AE00E94EB00E114F10409F49F
:1006B000ADCF0E940000AACF80910C019E01281BA3
:1006C000310987FD3395C901880F991F880F991F3C
:1006D0000E948C0060E0E6CF809100018C3098F49D
:1006E00091E0980F9093000180930B0190E0FC0142
:1006F000EE0FFF1FE80FF91FE25FFE4F88EB9BE054
:100700009283818308958FEF80930B010895052EC6
:1007100097FB1EF400940E949E0357FD07D00E9491
:10072000B10307FC03D04EF40C949E035095409502
:10073000309521953F4F4F4F5F4F0895909580958D
:10074000709561957F4F8F4F9F4F08950E94D303FF
:10075000A59F900DB49F900DA49F800D911D112415
:100760000895A1E21A2EAA1BBB1BFD010DC0AA1FF2
:10077000BB1FEE1FFF1FA217B307E407F50720F00A
:10078000A21BB30BE40BF50B661F771F881F991F85
:100790001A9469F760957095809590959B01AC01CE
:1007A000BD01CF010895A29FB001B39FC001A39FD7
:1007B000700D811D1124911DB29F700D811D11249A
:1007C000911D0895991B79E004C0991F961708F0B0
:1007D000961B881F7A95C9F780950895EE0FFF1F25
:0C07E0000590F491E02D0994F894FFCFEF
:107E0000112484B714BE81FFF0D085E080938100F7
:107E100082E08093C00088E18093C10086E0809377
:107E2000C20080E18093C4008EE0C9D0259A86E02C
:107E300020E33CEF91E0309385002093840096BBD3
:107E4000B09BFECF1D9AA8958150A9F7CC24DD24C4
:107E500088248394B5E0AB2EA1E19A2EF3E0BF2EE7
:107E6000A2D0813461F49FD0082FAFD0023811F036
:107E7000013811F484E001C083E08DD089C08234E0
:107E800011F484E103C0853419F485E0A6D080C0E4
:107E9000853579F488D0E82EFF2485D0082F10E0AE
:107EA000102F00270E291F29000F111F8ED06801E7
:107EB0006FC0863521F484E090D080E0DECF843638
:107EC00009F040C070D06FD0082F6DD080E0C81688
:107ED00080E7D80618F4F601B7BEE895C0E0D1E017
:107EE00062D089930C17E1F7F0E0CF16F0E7DF06D8
:107EF00018F0F601B7BEE89568D007B600FCFDCFD4
:107F0000A601A0E0B1E02C9130E011968C91119780
:107F100090E0982F8827822B932B1296FA010C0160
:107F200087BEE89511244E5F5F4FF1E0A038BF0790
:107F300051F7F601A7BEE89507B600FCFDCF97BE46
:107F4000E89526C08437B1F42ED02DD0F82E2BD052
:107F50003CD0F601EF2C8F010F5F1F4F84911BD097
:107F6000EA94F801C1F70894C11CD11CFA94CF0C13
:107F7000D11C0EC0853739F428D08EE10CD085E9AC
:107F80000AD08FE07ACF813511F488E018D01DD067
:107F900080E101D065CF982F8091C00085FFFCCF94
:107FA0009093C60008958091C00087FFFCCF809118
:107FB000C00084FD01C0A8958091C6000895E0E648
:107FC000F0E098E1908380830895EDDF803219F02E
:107FD00088E0F5DFFFCF84E1DECF1F93182FE3DFCA
:107FE0001150E9F7F2DF1F91089580E0E8DFEE27F6
:047FF000FF270994CA
:027FFE00040479
:00000001FF
