:100000000C9462000C948A000C948A000C94D20424
:100010000C94D2040C94D2040C948A000C948A00A0
:100020000C948A000C948A000C948A000C948A0028
:100030000C948A000C948A000C948A000C948A0018
:100040000C9488040C948A000C9456040C9430048C
:100050000C948A000C948A000C948A000C948A00F8
:100060000C948A000C948A000000000024002700F1
:100070002A0000000000250028002B0000000000DE
:1000800023002600290004040404040404040202DA
:100090000202020203030303030301020408102007
:1000A0004080010204081020010204081020000012
:1000B0000008000201000003040700000000000027
:1000C0000000DC0411241FBECFEFD8E0DEBFCDBF9F
:1000D00011E0A0E0B1E0E0E7F0E102C005900D9290
:1000E000AC32B107D9F721E0ACE2B1E001C01D921A
:1000F000AC3EB207E1F710E0C2E6D0E004C02197C1
:10010000FE010E943008C136D107C9F70E942605BA
:100110000C9436080C94000080E480937C0080915D
:100120007A00806480937A0080917A0086FDFCCF0B
:1001300080917800909179000895AF92BF92CF920C
:10014000DF92EF92FF920F931F93CF93DF936C0197
:100150007B018B01040F151FEB015E01AE18BF0878
:10016000C017D10759F06991D601ED91FC9101902A
:10017000F081E02DC6010995892B79F7C501DF9142
:10018000CF911F910F91FF90EF90DF90CF90BF9094
:10019000AF900895FC01538D448D252F30E0842FBE
:1001A00090E0821B930B541710F0CF96089501979F
:1001B0000895FC01918D828D981761F0A28DAE0F8C
:1001C000BF2FB11D5D968C91928D9F5F9F73928F13
:1001D00090E008958FEF9FEF0895FC01918D828D3F
:1001E000981731F0828DE80FF11D858D90E008950C
:1001F0008FEF9FEF0895FC01918D228D892F90E064
:10020000805C9F4F821B91098F739927089587E324
:1002100091E00E94FB0021E0892B09F420E0822F6D
:10022000089580E090E0892B29F00E940701811158
:100230000C9400000895FC01A48DA80FB92FB11DE6
:10024000A35ABF4F2C91848D90E001968F7399270C
:10025000848FA689B7892C93A089B1898C918370EA
:1002600080648C93938D848D981306C00288F389E3
:10027000E02D80818F7D80830895EF92FF920F9310
:100280001F93CF93DF93EC0181E0888F9B8D8C8D42
:1002900098131AC0E889F989808185FF15C09FB736
:1002A000F894EE89FF896083E889F98980818370F9
:1002B000806480839FBF81E090E0DF91CF911F91A8
:1002C0000F91FF90EF900895F62E0B8D10E00F5FC9
:1002D0001F4F0F731127E02E8C8D8E110CC00FB69F
:1002E00007FCFACFE889F989808185FFF5CFCE0137
:1002F0000E941B01F1CFEB8DEC0FFD2FF11DE35A96
:10030000FF4FF0829FB7F8940B8FEA89FB898081B9
:100310008062CFCFCF93DF93EC01888D8823B9F033
:10032000AA89BB89E889F9898C9185FD03C0808100
:1003300086FD0DC00FB607FCF7CF8C9185FFF2CF7D
:10034000808185FFEDCFCE010E941B01E9CFDF91B7
:10035000CF910895833081F028F4813099F0823074
:10036000A9F008958730A9F08830C9F08430B1F43D
:10037000809180008F7D03C0809180008F77809373
:100380008000089584B58F7784BD089584B58F7DEE
:10039000FBCF8091B0008F778093B000089580915B
:1003A000B0008F7DF9CF1F93CF93DF93282F30E0DC
:1003B000F901E255FF4F8491F901E656FF4FD491C0
:1003C000F901EA57FF4FC491CC23A9F0162F8111F0
:1003D0000E94AA01EC2FF0E0EE0FFF1FEE58FF4F36
:1003E000A591B4918FB7F894EC91111108C0D095F4
:1003F000DE23DC938FBFDF91CF911F910895DE2B19
:10040000F8CFCF93DF9390E0FC01E656FF4F2491A5
:100410008A579F4FFC0184918823D1F090E0880F88
:10042000991FFC01E859FF4FA591B491FC01EE58CA
:10043000FF4FC591D49161110EC09FB7F8948C9174
:10044000E22FE0958E238C932881E223E8839FBFDF
:10045000DF91CF9108958FB7F894EC91E22BEC9354
:100460008FBFF6CF3FB7F89480913301909134015C
:10047000A0913501B091360126B5A89B05C02F3F4C
:1004800019F00196A11DB11D3FBFBA2FA92F982FBA
:100490008827BC01CD01620F711D811D911D42E0B5
:1004A000660F771F881F991F4A95D1F708958F927D
:1004B0009F92AF92BF92CF92DF92EF92FF924B0149
:1004C0005C010E9432026B017C010E9432026C19B5
:1004D0007D098E099F09683E734081059105A8F347
:1004E00021E0821A9108A108B10888EEC80E83E0C5
:1004F000D81EE11CF11C81149104A104B10429F758
:10050000FF90EF90DF90CF90BF90AF909F908F9033
:100510000895089590E080E00895CF93DF93EC0173
:1005200060E08E810E94D30161E08E810E94D30140
:1005300060E08E810E94D3018BE891E00197F1F792
:10054000DF91CF910895CF92DF92EF92FF920F93B8
:100550001F93CF93DF936C017C0187E0E80EF11CC1
:10056000D0E0C0E0062F10E0B8010C2E02C0759557
:1005700067950A94E2F76170F70181917F010E940B
:10058000D3012196C430D10579F7C601DF91CF910F
:100590001F910F91FF90EF90DF90CF900C948D0200
:1005A000CF92DF92EF92FF920F931F93CF93DF933F
:1005B000EC01F62E642F8C810E94D3018D818F3F38
:1005C00019F060E00E94D3010F2D10E08F8584FFA9
:1005D00025C06E0187E0C80ED11CF12CE12CB801BA
:1005E0000E2C02C0759567950A94E2F76170F601CA
:1005F00081916F010E94D301FFEFEF1AFF0A88E09B
:10060000E816F10461F7CE01DF91CF911F910F91B0
:10061000FF90EF90DF90CF900C948D02B80184E0B2
:10062000759567958A95E1F7CE010E94A3026F2D1B
:10063000CE01DF91CF911F910F91FF90EF90DF904E
:10064000CF900C94A30240E0682F84ED91E00C94CD
:10065000D002CF93DF93823029F49091E301986028
:100660009093E3018093E7011092E80180E4809386
:10067000E90180E18093EA0180E58093EB0161E08C
:100680008091D8010E9401028091D9018F3F19F019
:1006900061E00E94010261E08091DA010E940102A2
:1006A000C4EDD1E09E01245D31408091E30184FDE1
:1006B0000BC084E090E021962817390744F461E0EC
:1006C0008E810E940102EECF88E090E0F4CF8BE3B0
:1006D0009DE00197F1F760E08091D8010E94D3017D
:1006E00060E08091DA010E94D3018091D9018F3FAF
:1006F00019F060E00E94D3018091E30184FD39C0CC
:1007000063E084ED91E00E94A302CBE4D6E4CE0145
:100710000197F1F763E084ED91E00E94A302219735
:10072000F1F763E084ED91E00E94A30283E592E09B
:100730000197F1F762E084ED91E00E94A3028091BD
:10074000E30180620E94230384E08093E4018CE053
:100750000E94230381E00E9423038BE39FE1019722
:10076000F1F782E08093E50186E0DF91CF910C9470
:10077000230380620E9423038BE496E40197F1F740
:100780008091E30180620E94230383E592E0019758
:10079000F1F78091E30180620E942303D0CF41E012
:1007A0000E94D00281E090E00895FB0101900020BA
:1007B000E9F73197AF01461B570BDC01ED91FC9136
:1007C0000280F381E02D09948F929F92AF92BF92A5
:1007D000EF92FF920F931F93CF93DF93CDB7DEB7C6
:1007E000A1970FB6F894DEBF0FBECDBF7C01FA0112
:1007F000CB0119A2223008F42AE08E010F5D1F4FB1
:10080000822E912CB12CA12CBF01A50194010E9434
:10081000C706F901CA016A300CF5605DD8016E9314
:100820008D01232B242B252B79F790E080E0109766
:1008300021F0BD01C7010E94D503A1960FB6F8941F
:10084000DEBF0FBECDBFDF91CF911F910F91FF9003
:10085000EF90BF90AF909F908F900895695CDECF2E
:100860001F920F920FB60F9211242F933F934F9325
:100870005F936F937F938F939F93AF93BF93EF9308
:10088000FF9387E391E00E941B01FF91EF91BF91DD
:10089000AF919F918F917F916F915F914F913F9118
:1008A0002F910F900FBE0F901F9018951F920F92CF
:1008B0000FB60F9211242F938F939F93EF93FF9373
:1008C000E0914701F09148018081E0914D01F09164
:1008D0004E0182FD1BC09081809150018F5F8F730C
:1008E00020915101821741F0E0915001F0E0E95C64
:1008F000FE4F958F80935001FF91EF919F918F91C3
:100900002F910F900FBE0F901F9018958081F4CFFC
:100910001F920F920FB60F9211242F933F938F9334
:100920009F93AF93BF9380912F0190913001A0913D
:100930003101B091320130912E0123E0230F2D3788
:1009400058F50196A11DB11D20932E0180932F0112
:1009500090933001A0933101B09332018091330123
:1009600090913401A0913501B09136010196A11DFD
:10097000B11D8093330190933401A0933501B0935E
:100980003601BF91AF919F918F913F912F910F9021
:100990000FBE0F901F90189526E8230F0296A11DF9
:1009A000B11DD2CF1F920F920FB60F9211240F904C
:1009B0000FBE0F901F901895E7E3F1E013821282AB
:1009C00088EE93E0A0E0B0E084839583A683B783AC
:1009D00084E091E09183808385EC90E09587848723
:1009E00084EC90E09787868780EC90E0918B808BF9
:1009F00081EC90E0938B828B82EC90E0958B848BE2
:100A000086EC90E0978B868B118E128E138E148E4F
:100A1000E4EDF1E01382128286E191E0918380831C
:100A20008CE084838FEF85838BE0868385E08783EA
:100A300084E0808783E0818782E082871386148642
:100A400015861686178681E00C942903789484B560
:100A5000826084BD84B5816084BD85B5826085BDBA
:100A600085B5816085BD80916E00816080936E0048
:100A7000109281008091810082608093810080913A
:100A800081008160809381008091800081608093EB
:100A900080008091B10084608093B1008091B000AB
:100AA00081608093B00080917A00846080937A00A6
:100AB00080917A00826080937A0080917A008160D0
:100AC00080937A0080917A00806880937A001092F7
:100AD000C10061E08DE00E94010260E082E00E94BE
:100AE0000102E0914701F091480182E08083E091AA
:100AF0004301F09144011082E0914501F0914601DB
:100B000084E1808310924F01E0914B01F0914C0100
:100B100086E08083E0914901F0914A018081806103
:100B20008083E0914901F0914A018081886080834F
:100B3000E0914901F0914A01808180688083E091D1
:100B40004901F0914A0180818F7D808382E00E947B
:100B500029036EE171E084ED91E00E94D5036EE11E
:100B600071E087E391E00E94D50367E271E087E3DB
:100B700091E00E94D50388248A9493E0992EA12CB9
:100B8000B12C0BE31FE128E8222E20E0322E3AE9B7
:100B9000432E55245394612C712CC0E0D0E00E9468
:100BA0008C004497BC01990F880B990B0E94300769
:100BB0002CE53FE842E450E40E9494070E94F806C6
:100BC0009B01AC01A5EAB0E00E94BC06A50194011E
:100BD0000E949D0669017A0188E2C81AD108E108DD
:100BE000F108E1E08091E7018111E0E0E195F0E0BA
:100BF000EC52FE4F848980680E9423036EE171E00D
:100C000084ED91E00E94D503E091E701E23008F025
:100C100092C0E150F0E0EC52FE4F848980680E945F
:100C200023030D2C000CEE08FF082AE0B701A601F3
:100C3000F7FE0EC041E06DE284ED91E00E94D0022B
:100C400044275527BA014C195D096E097F092AE02E
:100C500084ED91E00E94E4036AE271E084ED91E0AA
:100C60000E94D5032AE0B701A601F7FE0DC06DE290
:100C700087E391E00E943D0144275527BA014C19B2
:100C80005D096E097F092AE087E391E00E94E40391
:100C900067E271E087E391E00E94D50368EE73E0BC
:100CA00080E090E00E94570281E00E942303C80187
:100CB0000197F1F70E948C007C01E0EBF0E0849159
:100CC000ECE9F0E0C490F101D490DD20F9F081115D
:100CD0000E94AA01ED2DF0E0EE0FFF1FE458FF4F38
:100CE000A591B4918C91C82289F028EC30E0D7010D
:100CF0000E942908A30192010E949D0622533109F6
:100D00004109510961E0243631050CF460E08DE0C1
:100D10000E94D3016AE070E080E090E00E945702F8
:100D2000209709F43CCF0E940701882309F437CFAC
:100D30000E94000034CFE1E06DCF052E97FB1EF43A
:100D400000940E94B40657FD07D00E94C70607FC16
:100D500003D04EF40C94B4065095409530952195EF
:100D60003F4F4F4F5F4F08959095809570956195D7
:100D70007F4F8F4F9F4F08950E94E906A59F900DCA
:100D8000B49F900DA49F800D911D11240895A1E2A0
:100D90001A2EAA1BBB1BFD010DC0AA1FBB1FEE1FF5
:100DA000FF1FA217B307E407F50720F0A21BB30B40
:100DB000E40BF50B661F771F881F991F1A9469F7BC
:100DC00060957095809590959B01AC01BD01CF0118
:100DD0000895A29FB001B39FC001A39F700D811D14
:100DE0001124911DB29F700D811D1124911D089534
:100DF0000E94FF066894B1110C948E0708950E941A
:100E0000730788F09F5798F0B92F9927B751B0F022
:100E1000E1F0660F771F881F991F1AF0BA95C9F77E
:100E200014C0B13091F00E948D07B1E008950C9488
:100E30008D07672F782F8827B85F39F0B93FCCF33B
:100E4000869577956795B395D9F73EF490958095FB
:100E5000709561957F4F8F4F9F4F0895E89409C01B
:100E600097FB3EF490958095709561957F4F8F4FDD
:100E70009F4F9923A9F0F92F96E9BB279395F695F3
:100E8000879577956795B795F111F8CFFAF4BB0F71
:100E900011F460FF1BC06F5F7F4F8F4F9F4F16C0D5
:100EA000882311F096E911C0772321F09EE8872F5F
:100EB000762F05C0662371F096E8862F70E060E01B
:100EC0002AF09A95660F771F881FDAF7880F969594
:100ED000879597F9089557FD9058440F551F59F07D
:100EE0005F3F71F04795880F97FB991F61F09F3F17
:100EF00079F087950895121613061406551FF2CF40
:100F00004695F1DF08C0161617061806991FF1CF8F
:100F100086957105610508940895E894BB276627B6
:100F20007727CB0197F908950E94A7070C9418081A
:100F30000E940A0838F00E94110820F0952311F051
:100F40000C9401080C94070811240C948E070E943D
:100F50006B0770F3959FC1F3950F50E0551F629F8B
:100F6000F001729FBB27F00DB11D639FAA27F00D02
:100F7000B11DAA1F649F6627B00DA11D661F829F29
:100F80002227B00DA11D621F739FB00DA11D621F0E
:100F9000839FA00D611D221F749F3327A00D611D2B
:100FA000231F849F600D211D822F762F6A2F11240D
:100FB0009F5750409AF0F1F088234AF0EE0FFF1F40
:100FC000BB1F661F771F881F91505040A9F79E3F97
:100FD000510580F00C9401080C948E075F3FE4F3F8
:100FE000983ED4F3869577956795B795F795E795ED
:100FF0009F5FC1F7FE2B880F911D9695879597F9F6
:10100000089597F99F6780E870E060E008959FEF8A
:1010100080EC089500240A9416161706180609068F
:10102000089500240A94121613061406050608955E
:10103000092E0394000C11F4882352F0BB0F40F4E6
:10104000BF2B11F460FF04C06F5F7F4F8F4F9F4F26
:1010500008950E94E906B7FF0895821B930B089537
:10106000EE0FFF1F0590F491E02D0994F894FFCF47
:10107000000000003D019D00CA008A01FB00D9006C
:10108000ED0000000000CF039D008A0289024E6837
:0C10900069657420646F000D0A004300C5
:00000001FF
