:020000040000FA
:100000000C9462000C948A000C948A000C948A0070
:100010000C948A000C948A000C948A000C948A0038
:100020000C948A000C948A000C948A000C948A0028
:100030000C948A000C948A000C948A000C948A0018
:100040000C9412040C948A000C948A000C948A007C
:100050000C948A000C948A000C948A000C948A00F8
:100060000C945C040C948A0000000000240027001B
:100070002A0000000000250028002B0000000000DE
:1000800023002600290004040404040404040202DA
:100090000202020203030303030301020408102007
:1000A0004080010204081020010204081020000012
:1000B0000008000201000003040700000000000027
:1000C00000007B0511241FBECFEFD8E0DEBFCDBFFF
:1000D00011E0A0E0B1E0ECEAFDE002C005900D9275
:1000E000A435B107D9F722E0A4E5B1E001C01D9223
:1000F000AF32B207E1F710E0C2E6D0E004C02197CA
:10010000FE010E94CE06C136D107C9F70E949B05A9
:100110000C94D4060C94000008950895AF92BF92F9
:10012000CF92DF92EF92FF920F931F93CF93DF93C3
:100130006C017B018B01040F151FEB015E01AE18F2
:10014000BF08C017D10759F06991D601ED91FC9114
:100150000190F081E02DC6010995892B79F7C50141
:10016000DF91CF911F910F91FF90EF90DF90CF9093
:10017000BF90AF900895833081F028F4813099F0DA
:100180008230A9F008958730A9F08830C9F0843012
:10019000B1F4809180008F7D03C0809180008F77C3
:1001A00080938000089584B58F7784BD089584B5C9
:1001B0008F7DFBCF8091B0008F778093B000089542
:1001C0008091B0008F7DF9CF1F93CF93DF93282FBD
:1001D00030E0F901E255FF4F8491F901E656FF4FF7
:1001E000D491F901EA57FF4FC491CC23A9F0162FFF
:1001F00081110E94BB00EC2FF0E0EE0FFF1FEE58C4
:10020000FF4FA591B4918FB7F894EC91111108C0EC
:10021000D095DE23DC938FBFDF91CF911F9108959E
:10022000DE2BF8CFCF93DF9390E0FC01E656FF4F33
:1002300024918A579F4FFC0184918823D1F090E04C
:10024000880F991FFC01E859FF4FA591B491FC015B
:10025000EE58FF4FC591D49161110EC09FB7F8942D
:100260008C91E22FE0958E238C932881E223E88302
:100270009FBFDF91CF9108958FB7F894EC91E22B57
:10028000EC938FBFF6CF3FB7F89480910B0290911B
:100290000C02A0910D02B0910E0226B5A89B05C0DC
:1002A0002F3F19F00196A11DB11D3FBFBA2FA92FF5
:1002B000982F8827BC01CD01620F711D811D911DF2
:1002C00042E0660F771F881F991F4A95D1F708955E
:1002D0008F929F92AF92BF92CF92DF92EF92FF9256
:1002E0004B015C010E9443016B017C010E944301B0
:1002F0006C197D098E099F09683E7340810591053F
:10030000A8F321E0821A9108A108B10888EEC80E6E
:1003100083E0D81EE11CF11C81149104A104B104F6
:1003200029F7FF90EF90DF90CF90BF90AF909F9014
:100330008F900895089520919501260F3327331F3C
:1003400021323105ECF42091DE01FC0190E080E0E7
:10035000243069F082E00895A09195012191AC01CB
:100360004B585E4FA40FB52FB11D2C9301968617E5
:1003700098F380919501680F6093950180E008954E
:1003800081E008951092DE0181E08093DD011092FA
:10039000B80161E082E10E94E40061E083E10E9433
:1003A000E400E9EBF0E080818E7F808380818D7FA7
:1003B000808388E48093B80085E48093BC0008952E
:1003C000CF93DF9391E0909374018823B9F0C091AB
:1003D000B800D091BA008091BC008A7B8093BC00A9
:1003E00060E082E10E94E40060E083E10E94E400BA
:1003F0000E94C201D093BA00C093B800DF91CF91A0
:1004000008950895E091160280911502E81730F4DE
:10041000F0E0EC5AFE4F808190E008958FEF9FEF5F
:10042000089590911602809115022FEF3FEF9817D3
:1004300048F4E92FF0E0EC5AFE4F208130E09F5F56
:1004400090931602C90108958091150290911602A9
:10045000891B990B0895CF92DF92EF92FF920F9331
:100460001F93CF93DF937C01CB018A012091E4019C
:10047000222389F0EB016B01C40ED51ECC15DD05DE
:1004800069F06991D701ED91FC910190F081E02D27
:10049000C7010995F3CF642F0E949B01C801DF912A
:1004A000CF911F910F91FF90EF90DF90CF90089523
:1004B000CF93DF931F92CDB7DEB769832091E4011C
:1004C0002223F9F020911302203258F021E030E08D
:1004D000FC013383228390E080E00F90DF91CF9185
:1004E000089580911402E82FF0E0EB51FE4F9981BE
:1004F00090838F5F809314028093130281E090E0D9
:10050000ECCF61E0CE0101960E949B01F7CFCF9224
:10051000DF92EF92FF920F931F93CF93DF93FC0133
:10052000C48121E02093E401C093050210921402DB
:10053000109213028385682B87E192E00E94580293
:10054000D0911302D13208F092C00E9443016B0196
:100550007C018091DE01811165C082E08093DE0123
:1005600081E08093DD018FEF8093DC011092DB014D
:10057000D093DA01A5EEB1E0EAEBF1E080E0D81328
:1005800085C01092B9018091B901CC0FC82BC093DE
:10059000B9018091B801813009F07CC01092B80196
:1005A0000E9443016B017C018091B9018093BB00E3
:1005B0008091E0019091E101A091E201B091E3010D
:1005C000892B8A2B8B2B99F00E9443010091E0012B
:1005D0001091E1012091E2013091E3016C197D0954
:1005E0008E099F090617170728073907E0F1809140
:1005F000BC0083FDD9CF85EC8093BC000E944301F1
:100600006B017C018091DE01823009F445C080914C
:10061000DC018F3F61F18091DC01803241F18091FA
:10062000DC0125C08091E0019091E101A091E201FF
:10063000B091E301892B8A2B8B2B09F48ACF0E947E
:1006400043010091E0011091E1012091E20130911C
:10065000E3016C197D098E099F0906171707280702
:10066000390708F076CF8091DF010E94E0011092F7
:100670001402109213021092E401DF91CF911F91A6
:100680000F91FF90EF90DF90CF9008959D919193FF
:100690008F5F75CF85EEB0CF8091E0019091E10141
:1006A000A091E201B091E301892B8A2B8B2B09F4F5
:1006B000A9CF0E9443010091E0011091E101209136
:1006C000E2013091E3016C197D098E099F0906173B
:1006D00017072807390708F095CFC5CF90E080E0CD
:1006E00008950F931F93CF938C01C62F0E9487020A
:1006F0006C2F6460C8010E9487026C2F6B7FC80159
:100700000E94870283EC90E00197F1F7CF911F914F
:100710000F9108950F931F93CF93DF938C01D62FE2
:10072000C42F607F642B0E94710380E1D89FB001C9
:1007300011246C2BC801DF91CF911F910F910C9464
:100740007103CF93DF93CDB7DEB728970FB6F89438
:10075000DEBF0FBECDBF98E0E0E0F1E0DE01119614
:1007600001900D929A95E1F790912B02961708F45B
:100770006FEF262F30E0220F331F41E050E04C0F87
:100780005D1F240F351FF9016081680F606840E02C
:1007900083E292E028960FB6F894DEBF0FBECDBF7D
:1007A000DF91CF910C948A0341E00E948A0381E09B
:1007B00090E0089585ED8093BC008091E0019091D8
:1007C000E101A091E201B091E3010796A11DB11DE5
:1007D00023E0B695A795979587952A95D1F720910F
:1007E000BC0024FD03C01092DE0108954091E00199
:1007F0005091E1016091E2017091E301452B462B9C
:10080000472B69F30097A105B10541F025E32A952F
:10081000F1F700000197A109B109E1CF8091DF0153
:100820000C94E0011F920F920FB60F9211242F9398
:100830003F938F939F93AF93BF93809107029091C3
:100840000802A0910902B0910A023091060223E049
:10085000230F2D3758F50196A11DB11D20930602D7
:100860008093070290930802A0930902B0930A02B2
:1008700080910B0290910C02A0910D02B0910E029A
:100880000196A11DB11D80930B0290930C02A093C1
:100890000D02B0930E02BF91AF919F918F913F9146
:1008A0002F910F900FBE0F901F90189526E8230FE1
:1008B0000296A11DB11DD2CF1F920F920FB60F92BB
:1008C00011242F933F934F935F936F937F938F9355
:1008D0009F93AF93BF93EF93FF938091B900887F6D
:1008E000803609F44AC0F0F5883209F4A7C018F53B
:1008F000803109F49BC0B8F4882309F4F9C088302A
:1009000009F494C0FF91EF91BF91AF919F918F91A6
:100910007F916F915F914F913F912F910F900FBEFB
:100920000F901F901895883109F488C0803251F7D4
:100930008093DC0114C0803409F49DC040F48033FE
:10094000B9F38833F9F68093DC0185ECB0C08035CB
:1009500009F485C0883509F496C0883499F60E9458
:10096000DA03D0CF883909F48CC038F5883729F0FC
:1009700050F4883611F0803729F683E08093DE0149
:100980001092B70157C0883809F47BC0803919F03C
:10099000803809F0B7CF8091B701803208F071C07C
:1009A000E091B70181E08E0F8093B7018091BB0089
:1009B000F0E0E956FE4F80833DC0803B39F0E0F423
:1009C000803A09F479C0883A09F09CCF84E080939A
:1009D000DE011092960110929501E0911102F091C2
:1009E000120209958091950181110FC081E08093D9
:1009F00095011092750109C0803C09F4A6CF883C8E
:100A000009F4A3CF883B09F07DCFE091960181E006
:100A10008E0F80939601F0E0EB58FE4F808180931B
:100A2000BB00909196018091950129C08091B901F8
:100A30008093BB0085EC8093BC0064CF9091DB0178
:100A40008091DA01981758F5E091DB0181E08E0F73
:100A50008093DB01F0E0E654FE4F8081E9CFE09126
:100A6000DB0181E08E0F8093DB018091BB00F0E021
:100A7000E654FE4F80839091DB018091DA01981754
:100A8000C8F285E8D8CFE091DB0181E08E0F80933A
:100A9000DB018091BB00F0E0E654FE4F8083809143
:100AA000DD0181115CCF81E08093B80184EA8093FD
:100AB000BC001092DE0126CF85EC8093BC00109222
:100AC000DE018091B701803230F4E091B701F0E0AF
:100AD000E956FE4F10826091B70170E0E0910F027D
:100AE000F091100287E991E009951092B7010ACFC1
:100AF0001092DC0134CFE7E1F2E01382128288EE3B
:100B000093E0A0E0B0E084839583A683B7838CE074
:100B100091E091838083E3E2F2E0138212828EE11E
:100B200091E09183808387E2848380E1818782E002
:100B3000828713860895789484B5826084BD84B5D5
:100B4000816084BD85B5826085BD85B5816085BDC8
:100B500080916E00816080936E0010928100809180
:100B60008100826080938100809181008160809308
:100B70008100809180008160809380008091B1002D
:100B800084608093B1008091B00081608093B00058
:100B900080917A00846080937A0080917A008260EC
:100BA00080937A0080917A00816080937A008091AE
:100BB0007A00806880937A001092C10060E088E03B
:100BC0000E94120161E089E00E94120161E087E069
:100BD0000E94120110921602109215021092140235
:100BE000109213020E94C2018CE890E090931202CE
:100BF000809311028DE890E09093100280930F0291
:100C00001092280280912D02823018F098E0909383
:100C1000280280932B0262E370E080E090E00E9463
:100C2000680160912E0283E292E00E94870268EEE2
:100C300073E080E090E00E94680160E383E292E06C
:100C40000E947103CBE4D6E4CE010197F1F760E393
:100C500083E292E00E9471032197F1F760E383E25F
:100C600092E00E94710383E592E00197F1F760E260
:100C700083E292E00E94710360912802606240E08A
:100C800083E292E00E948A0384E08093290240E09C
:100C90006CE083E292E00E948A0340E061E083E23C
:100CA00092E00E948A03CBE3DFE1CE010197F1F7E6
:100CB00082E080932A0240E066E083E292E00E94B4
:100CC0008A0340E062E083E292E00E948A03219777
:100CD000F1F788E080932E0260E083E292E00E94C8
:100CE000870260E083E00E94A10348E150E066E2F1
:100CF00071E083E292E00E948E00C6EBD0E002EA4F
:100D000010E09EE8E92E90E0F92E20E0C22E20E0CF
:100D1000D22EFE018491F801A490F701B490BB207B
:100D200041F181110E94BB00EB2DF0E0EE0FFF1F9F
:100D3000E458FF4FA591B4918C91A822D1F061E0C5
:100D400080E00E94A10348E050E06FE371E083E29D
:100D500092E00E948E0061E089E00E94E40061E080
:100D600087E00E94E400C114D10499F20E940000BF
:100D7000D0CF60E089E00E94E40060E087E00E945C
:100D8000E40061E080E00E94A1034BE050E068E4F1
:100D900071E083E292E00E948E00E5CFEE0FFF1F2C
:100DA0000590F491E02D0994F894FFCF00004000E5
:100DB000140054000000000058022B026E030102D0
:100DC00024021102020200000000D4038E006E0310
:100DD0009A0154686965742062692064616E6720B5
:100DE0007472616E6720746861690042616F2044AB
:100DF0006F6E670042696E68205468756F6E670099
:107E0000112484B714BE81FFF0D085E080938100F7
:107E100082E08093C00088E18093C10086E0809377
:107E2000C20080E18093C4008EE0C9D0259A86E02C
:107E300020E33CEF91E0309385002093840096BBD3
:107E4000B09BFECF1D9AA8958150A9F7CC24DD24C4
:107E500088248394B5E0AB2EA1E19A2EF3E0BF2EE7
:107E6000A2D0813461F49FD0082FAFD0023811F036
:107E7000013811F484E001C083E08DD089C08234E0
:107E800011F484E103C0853419F485E0A6D080C0E4
:107E9000853579F488D0E82EFF2485D0082F10E0AE
:107EA000102F00270E291F29000F111F8ED06801E7
:107EB0006FC0863521F484E090D080E0DECF843638
:107EC00009F040C070D06FD0082F6DD080E0C81688
:107ED00080E7D80618F4F601B7BEE895C0E0D1E017
:107EE00062D089930C17E1F7F0E0CF16F0E7DF06D8
:107EF00018F0F601B7BEE89568D007B600FCFDCFD4
:107F0000A601A0E0B1E02C9130E011968C91119780
:107F100090E0982F8827822B932B1296FA010C0160
:107F200087BEE89511244E5F5F4FF1E0A038BF0790
:107F300051F7F601A7BEE89507B600FCFDCF97BE46
:107F4000E89526C08437B1F42ED02DD0F82E2BD052
:107F50003CD0F601EF2C8F010F5F1F4F84911BD097
:107F6000EA94F801C1F70894C11CD11CFA94CF0C13
:107F7000D11C0EC0853739F428D08EE10CD085E9AC
:107F80000AD08FE07ACF813511F488E018D01DD067
:107F900080E101D065CF982F8091C00085FFFCCF94
:107FA0009093C60008958091C00087FFFCCF809118
:107FB000C00084FD01C0A8958091C6000895E0E648
:107FC000F0E098E1908380830895EDDF803219F02E
:107FD00088E0F5DFFFCF84E1DECF1F93182FE3DFCA
:107FE0001150E9F7F2DF1F91089580E0E8DFEE27F6
:047FF000FF270994CA
:027FFE00040479
:00000001FF
