:100000000C945D000C9485000C9485000C94850084
:100010000C9485000C9485000C9485000C9485004C
:100020000C9485000C9485000C9485000C9485003C
:100030000C9485000C9485000C9485000C9485002C
:100040000C9403040C9485000C94D1030C94AB0322
:100050000C9485000C9485000C9485000C9485000C
:100060000C9485000C94850000000008000201003B
:100070000003040700000000000000000000000072
:10008000250028002B0000000000240027002A0083
:10009000040404040404040402020202020203032E
:1000A0000303030301020408102040800102040836
:1000B0001020010204081020FC0511241FBECFEF00
:1000C000D8E0DEBFCDBF11E0A0E0B1E0E6EAFCE0A1
:1000D00002C005900D92A631B107D9F721E0A6E143
:1000E000B1E001C01D92A43CB207E1F710E0CDE5FC
:1000F000D0E004C02197FE010E944B06CC35D10709
:10010000C9F70E944D040C9451060C94000090E035
:10011000FC01EC55FF4F249180579F4FFC018491C7
:10012000882399F090E0880F991FFC01EA57FF4F50
:10013000A591B491FC01E458FF4F859194918FB73C
:10014000F894EC91E22BEC938FBF0895AF92BF929D
:10015000CF92DF92EF92FF920F931F93CF93DF9393
:100160006C017B018B01040F151FEB015E01AE18C2
:10017000BF08C017D10759F06991D601ED91FC91E4
:100180000190F081E02DC6010995892B79F7C50111
:10019000DF91CF911F910F91FF90EF90DF90CF9063
:1001A000BF90AF900895FC01538D448D252F30E012
:1001B000842F90E0821B930B541710F0CF96089574
:1001C00001970895FC01918D828D981761F0A28DA1
:1001D000AE0FBF2FB11D5D968C91928D9F5F9F7367
:1001E000928F90E008958FEF9FEF0895FC01918D1D
:1001F000828D981731F0828DE80FF11D858D90E08A
:1002000008958FEF9FEF0895FC01918D228D892F26
:1002100090E0805C9F4F821B91098F73992708950E
:1002200087E291E00E94040121E0892B09F420E09B
:10023000822F089580E090E0892B29F00E94100120
:1002400081110C9400000895FC01A48DA80FB92F12
:10025000B11DA35ABF4F2C91848D90E001968F73EE
:100260009927848FA689B7892C93A089B1898C910D
:10027000837080648C93938D848D981306C002885C
:10028000F389E02D80818F7D80830895EF92FF9226
:100290000F931F93CF93DF93EC0181E0888F9B8DA9
:1002A0008C8D98131AC0E889F989808185FF15C063
:1002B0009FB7F894EE89FF896083E889F989808186
:1002C0008370806480839FBF81E090E0DF91CF9155
:1002D0001F910F91FF90EF900895F62E0B8D10E077
:1002E0000F5F1F4F0F731127E02E8C8D8E110CC0E6
:1002F0000FB607FCFACFE889F989808185FFF5CF31
:10030000CE010E942401F1CFEB8DEC0FFD2FF11DEA
:10031000E35AFF4FF0829FB7F8940B8FEA89FB896D
:1003200080818062CFCFCF93DF93EC01888D8823CB
:10033000B9F0AA89BB89E889F9898C9185FD03C048
:10034000808186FD0DC00FB607FCF7CF8C9185FF2D
:10035000F2CF808185FFEDCFCE010E942401E9CF4D
:10036000DF91CF91089590E0FC01E859FF4F24916F
:10037000FC01EC55FF4F3491FC01E057FF4FE49135
:10038000EE23C9F0222339F0233001F1A8F4213003
:1003900019F1223029F1F0E0EE0FFF1FE458FF4F72
:1003A000A591B4918FB7F894EC91611126C0309566
:1003B0003E233C938FBF08952730A9F02830C9F021
:1003C000243049F7809180008F7D03C080918000A8
:1003D0008F7780938000DFCF84B58F7784BDDBCFAC
:1003E00084B58F7DFBCF8091B0008F778093B00074
:1003F000D2CF8091B0008F7DF9CF3E2BDACF3FB7BF
:10040000F8948091170190911801A0911901B09171
:100410001A0126B5A89B05C02F3F19F00196A11D12
:10042000B11D3FBFBA2FA92F982F8827BC01CD013E
:10043000620F711D811D911D42E0660F771F881F9D
:10044000991F4A95D1F7089560E087E00E94B301B3
:1004500060E088E00E94B30160E082E00E94B301A6
:1004600060E083E00E94B30161E084E00E94B30198
:1004700060E086E00E94B30160E085E00C94B30187
:1004800060E087E00E94B30160E088E00E94B30171
:1004900060E082E00E94B30160E083E00E94B3016B
:1004A00060E084E00E94B30160E086E00E94B30156
:1004B00060E085E00C94B30160E087E00E94B30146
:1004C00060E088E00E94B30160E082E00E94B30136
:1004D00061E083E00E94B30161E084E00E94B30127
:1004E00061E086E00E94B30161E085E00C94B30115
:1004F00060E087E00E94B30161E088E00E94B30100
:1005000060E082E00E94B30160E083E00E94B301FA
:1005100060E084E00E94B30160E086E00E94B301E5
:1005200060E085E00C94B30160E087E00E94B301D5
:1005300061E088E00E94B30160E082E00E94B301C4
:1005400060E083E00E94B30161E084E00E94B301B7
:1005500060E086E00E94B30160E085E00C94B301A6
:1005600061E087E00E94B30160E088E00E94B3018F
:1005700060E082E00E94B30161E083E00E94B30189
:1005800061E084E00E94B30160E086E00E94B30174
:1005900060E085E00C94B30160E087E00E94B30165
:1005A00060E088E00E94B30160E082E00E94B30155
:1005B00060E083E00E94B30161E084E00E94B30147
:1005C00061E086E00E94B30160E085E00C94B30135
:1005D00060E087E00E94B30160E088E00E94B30120
:1005E00061E082E00E94B30160E083E00E94B30119
:1005F00060E084E00E94B30161E086E00E94B30104
:1006000060E085E00C94B30161E087E00E94B301F3
:1006100060E088E00E94B30160E082E00E94B301E4
:1006200061E083E00E94B30161E084E00E94B301D5
:1006300061E086E00E94B30161E085E00C94B301C3
:1006400060E087E00E94B30160E088E00E94B301AF
:1006500060E082E00E94B30160E083E00E94B301A9
:1006600060E084E00E94B30160E086E00E94B30194
:1006700061E085E00C94B3018F929F92AF92BF929C
:100680000F931F93CF93DF93CDB7DEB7A1970FB62C
:10069000F894DEBF0FBECDBF19A2423008F44AE085
:1006A0008E010F5D1F4F842E912CB12CA12CA50122
:1006B00094010E942906E62FB901CA01EA3044F5E7
:1006C000E05DD801EE938D01232B242B252B79F7A8
:1006D00090E080E0109769F0FD0101900020E9F7BB
:1006E0003197AF014A1B5B0BBD0187E291E00E948D
:1006F000A600A1960FB6F894DEBF0FBECDBFDF9166
:10070000CF911F910F91BF90AF909F908F900895C0
:10071000E95CD7CFCF92DF92EF92FF92CF93DF9336
:100720006B017C016DE287E291E00E944601EC01E1
:1007300066277727CB016C197D098E099F094AE04E
:100740000E943C038C0F9D1FDF91CF91FF90EF9093
:10075000DF90CF9008951F920F920FB60F92112441
:100760002F933F934F935F936F937F938F939F93B9
:10077000AF93BF93EF93FF9387E291E00E94240130
:10078000FF91EF91BF91AF919F918F917F916F9169
:100790005F914F913F912F910F900FBE0F901F903F
:1007A00018951F920F920FB60F9211242F938F93CB
:1007B0009F93EF93FF93E0913701F091380180818F
:1007C000E0913D01F0913E0182FD1BC0908180913E
:1007D00040018F5F8F7320914101821741F0E091BA
:1007E0004001F0E0E95DFE4F958F80934001FF915D
:1007F000EF919F918F912F910F900FBE0F901F90AF
:1008000018958081F4CF1F920F920FB60F9211248A
:100810002F933F938F939F93AF93BF9380911B012F
:1008200090911C01A0911D01B0911E013091160103
:1008300023E0230F2D3758F50196A11DB11D2093FC
:10084000160180931B0190931C01A0931D01B0938E
:100850001E018091170190911801A0911901B0918A
:100860001A010196A11DB11D8093170190931801E3
:10087000A0931901B0931A01BF91AF919F918F91ED
:100880003F912F910F900FBE0F901F90189526E863
:10089000230F0296A11DB11DD2CF789484B582603A
:1008A00084BD84B5816084BD85B5826085BD85B514
:1008B000816085BD80916E00816080936E00109292
:1008C000810080918100826080938100809181000D
:1008D000816080938100809180008160809380009E
:1008E0008091B10084608093B1008091B0008160FC
:1008F0008093B00080917A00846080937A00809128
:100900007A00826080937A0080917A00816080937F
:100910007A0080917A00806880937A001092C100FA
:10092000E0913701F091380182E08083E09133015A
:10093000F09134011082E0913501F09136018FEC95
:10094000808310923F01E0913B01F0913C0186E0F1
:100950008083E0913901F0913A0180818061808348
:10096000E0913901F0913A01808188608083E091C3
:100970003901F0913A01808180688083E0913901EA
:10098000F0913A0180818F7D808387E00E9487000B
:1009900088E00E94870082E00E94870083E00E9436
:1009A000870084E00E94870086E00E94870085E03F
:1009B0000E9487008AE00E9487008BE00E948700E7
:1009C000FF24F39400E010E0809100018F258093D4
:1009D000000181111DC060E08AE00E94B30161E066
:1009E0008BE00E94B301C0912501D0912601209790
:1009F000E1F40E942003C530D10511F50E94940254
:100A000030C0C830D10509F0E9C00E94400229C0B9
:100A100061E08AE00E94B30160E08BE00E94B301D4
:100A2000C0912301D0912401E2CFC130D10519F446
:100A30000E940403E0CFC230D10541F40E94E802D5
:100A4000C630D10549F40E9478020BC0C330D105ED
:100A500009F0BEC00E94CC02C730D10591F60E94B9
:100A60005C022FB7F89480911B0190911C01A0911A
:100A70001D01B0911E012FBF40911F015091200117
:100A800060912101709122015C016D01A41AB50AE7
:100A9000C60AD70AB601A501483E53406105710553
:100AA0000CF44AC080931F0190932001A093210170
:100AB000B093220180912501909126010196909397
:100AC0002601809325010A976CF080912301909173
:100AD0002401109226011092250101969093240181
:100AE0008093230180912301909124010A9724F09F
:100AF000109224011092230160912301709124012E
:100B0000072E000C880B990B97FF6EC00E948A037A
:100B10006091250170912601072E000C880B990B1E
:100B200097FF66C00E948A0342E050E063E171E0F3
:100B300087E291E00E94A6000E94FF014B015C0148
:100B400085E0482E512C612C712C0E94FF01681900
:100B500079098A099B09683E734081059105A8F3CC
:100B600081E0481A51086108710828EE820E23E0DE
:100B7000921EA11CB11C411451046104710429F797
:100B800060E087E00E94B30160E088E00E94B3016A
:100B900060E082E00E94B30160E083E00E94B30164
:100BA00060E084E00E94B30160E086E00E94B3014F
:100BB00060E085E00E94B3010115110509F404CF3E
:100BC0000E941001882309F4FFCE0E940000FCCE91
:100BD000C430D10509F00FCF0E94B002299709F067
:100BE00040CF0E9424023DCF4AE00E943C0390CFB8
:100BF0004AE00E943C0398CFE7E2F1E013821282C0
:100C000088EE93E0A0E0B0E084839583A683B78369
:100C100085E091E09183808385EC90E095878487DF
:100C200084EC90E09787868780EC90E0918B808BB6
:100C300081EC90E0938B828B82EC90E0958B848B9F
:100C400086EC90E0978B868B118E128E138E148E0D
:100C50000895A1E21A2EAA1BBB1BFD010DC0AA1FFD
:100C6000BB1FEE1FFF1FA217B307E407F50720F015
:100C7000A21BB30BE40BF50B661F771F881F991F90
:100C80001A9469F760957095809590959B01AC01D9
:100C9000BD01CF010895EE0FFF1F0590F491E02DE7
:060CA0000994F894FFCF57
:100CA60001000000004601A600D30093010401E202
:060CB60000F6000D0A002B
:00000001FF
